:100000000C942A000C9447000C9447000C94470071
:100010000C9447000C9447000C9447000C94470044
:100020000C9447000C9447000C9447000C94470034
:100030000C9447000C9447000C9447000C94470024
:100040000C9447000C9447000C9447000C94470014
:100050000C94470011241FBECFE5D8E0DEBFCDBF12
:1000600010E0A0E6B0E0EAE1F9E002C005900D92F0
:10007000AE3AB107D9F720E0AEEAB0E001C01D9278
:10008000AF3AB207E1F70E946C020C948B040C9417
:1000900000008FE084BB85B3806F85BB089585B376
:1000A0008E7F85BB85B3826085BB85B3846085BB4D
:1000B00085B3886085BB9C9B5CC09D9B5CC09E9B00
:1000C0005CC09F9B5CC08FE097E20197F1F700C096
:1000D000000085B3816085BB85B38D7F85BB85B30B
:1000E000846085BB85B3886085BB9C9B4AC09D9B13
:1000F0004AC09E9B4AC09F9B4AC08FE097E20197EF
:10010000F1F700C0000085B3816085BB85B38260D4
:1001100085BB85B38B7F85BB85B3886085BB9C9B86
:1001200038C09D9B38C09E9B38C09F9B38C08FE0D5
:1001300097E20197F1F700C0000085B3816085BBAD
:1001400085B3826085BB85B3846085BB85B3877FBB
:1001500085BB9C9B26C09D9B26C09E9B26C09F9BCB
:1001600026C08FE097E20197F1F700C000008FEF03
:10017000089587E3089588E3089589E308958FE259
:10018000089584E3089585E3089586E3089588E556
:10019000089581E3089582E3089583E308958DE24D
:1001A000089583E4089580E308958DE308958BE234
:1001B00008959BB39F7B9BBB882324F49BB39160E2
:1001C0009BBB03C09BB39E7F9BBB86FF04C09BB3BE
:1001D00092609BBB03C09BB39D7F9BBB85FF04C00C
:1001E0009BB394609BBB03C09BB39B7F9BBB84FF73
:1001F00004C09BB398609BBB03C09BB3977F9BBB22
:100200009BB390619BBBEFECF7E03197F1F700C037
:1002100000009BB39F7E9BBB83FF04C09BB3916098
:100220009BBB03C09BB39E7F9BBB82FF04C09BB361
:1002300092609BBB03C09BB39D7F9BBB81FF04C0AF
:100240009BB394609BBB03C09BB39B7F9BBB80FF16
:1002500004C08BB388608BBB03C08BB3877F8BBB21
:100260008BB380618BBB8FEC97E00197F1F700C0F7
:1002700000008BB38F7E8BBBEFECF7E03197F1F78B
:1002800000C0000008958FEF8ABB8BB38F7D8BBBBE
:1002900083E00E94D9008FE39FE10197F1F700C04E
:1002A000000083E00E94D9008FE39FE10197F1F7FE
:1002B00000C0000083E00E94D9008FE39FE1019716
:1002C000F1F700C0000082E00E94D90088E20E949D
:1002D000D90081E00E94D90086E00E94D9008CE01C
:1002E0000E94D9008FE39CE90197F1F700C000005C
:1002F00008959BB390649BBB882324F49BB39160C7
:100300009BBB03C09BB39E7F9BBB86FF04C09BB37C
:1003100092609BBB03C09BB39D7F9BBB85FF04C0CA
:100320009BB394609BBB03C09BB39B7F9BBB84FF31
:1003300004C09BB398609BBB03C09BB3977F9BBBE0
:100340009BB390619BBBEFECF7E03197F1F700C0F6
:1003500000009BB39F7E9BBB83FF04C09BB3916057
:100360009BBB03C09BB39E7F9BBB82FF04C09BB320
:1003700092609BBB03C09BB39D7F9BBB81FF04C06E
:100380009BB394609BBB03C09BB39B7F9BBB80FFD5
:1003900004C08BB388608BBB03C08BB3877F8BBBE0
:1003A0008BB380618BBB8FEC97E00197F1F700C0B6
:1003B00000008BB38F7E8BBBEFECF7E03197F1F74A
:1003C00000C000008091AE008F5F8093AE00089562
:1003D0000F931F93CF938C01C0E003C00E9479015B
:1003E000CF5FF801EC0FF11D80818111F7CFCF9124
:1003F0001F910F9108950F931F93CF93DF93CDB764
:10040000DEB72A970FB6F894DEBF0FBECDBFAC01A2
:1004100010E02BC09A01ADECBCEC0E947C049695D8
:10042000879596958795969587959C01220F331F02
:10043000880F991F880F991F880F991F820F931F8C
:100440009A01281B390BE1E0F0E0EC0FFD1FE10FF2
:10045000F11D20839A010E947C04AC0156954795BA
:1004600056954795569547951F5F4115510591F64D
:1004700000E010C0E12FF0E0E01BF109319781E0CE
:1004800090E08C0F9D1FE80FF91F8081805D0E9416
:1004900079010F5F011770F32A960FB6F894DEBF4B
:1004A0000FBECDBFDF91CF911F910F910895E199BC
:1004B000FECF9FBB8EBB6DBB8CB384608CBB8CB3FB
:1004C00082608CBB0895E199FECF9FBB8EBB8CB33D
:1004D00081608CBB8DB308950E9443010E94490046
:1004E00087B3816087BB84E190E00E94630224E6C9
:1004F000829FE001112485E190E00E946302C80F11
:10050000D11D00E0BB24B3940E944F00182F8F32FE
:1005100009F0E3C088B3816088BB8FEF9DE329E4D5
:10052000815090402040E1F700C0000088B38E7FEA
:1005300088BB81E00E94D90080E690E00E94E8013B
:10054000CC24CA94DC2C760107C00E944F00C82E30
:10055000880FDD08EE08FF088FEFC816D806E806FA
:10056000F80699F30E944F008F3FE1F790E3C91A14
:10057000D108E108F1088AE20E94790188EE93E04F
:10058000C89EE001C99ED00DD89ED00D1124CC2468
:10059000CA94DC2C760107C00E944F00C82E880F39
:1005A000DD08EE08FF082FEFC216D206E206F206BB
:1005B00099F30E944F008F3FE1F780E3C81AD108FA
:1005C000E108F1088AE20E94790184E68C9D8001AD
:1005D0008D9D100D11240C0F1D1FCC24CA94DC2CF2
:1005E000760107C00E944F00C82E880FDD08EE0874
:1005F000FF089FEFC916D906E906F90699F30E948C
:100600004F008F3FE1F720E3C21AD108E108F1085B
:100610008AE20E947901E601CC0FDD1FCC0CDD1CC3
:10062000CC0CDD1CCC0CDD1CCC0EDD1EC00ED11E96
:1006300044244A94542C320107C00E944F00482E93
:10064000880F5508660877088FEF48165806680621
:10065000780699F30E944F008F3FE1F790E3491A23
:100660005108610871088AE20E947901E601C40D0F
:10067000D51D2FEF84E39CE0215080409040E1F7AE
:1006800000C0000081E00E94D90088E690E00E944E
:10069000E801CE010E94FB017E01F694E794F694F6
:1006A000E7949701ABE7B4E10E947C048C011695B6
:1006B0000795602F84E190E00E94570224E6209F76
:1006C000C001219F900D1124BE01681B790B85E1AB
:1006D00090E00E94570200E017CF8835E9F488B314
:1006E000816088BB2FEF84E39CE0215080409040E4
:1006F000E1F700C0000088B38E7F88BB0E944F00E6
:100700008F3FE1F781E00E94D90085E790E00E94E9
:10071000E80100E0B12CF8CE8F3F09F4BEC0B11063
:10072000BCC081E00E94D9000E944F008F3FE1F7DA
:10073000E12E110FFF0820E3E21AF1088AE20E947D
:10074000790188EE93E0E89E8001E99E100DF89E05
:10075000100D1124CC24CA94DC2C760107C00E9411
:100760004F00C82E880FDD08EE08FF088FEFC8166F
:10077000D806E806F80699F30E944F008F3FE1F78C
:1007800090E3C91AD108E108F1088AE20E947901D0
:1007900024E62C9DC0012D9D900D1124080F191FDA
:1007A000CC24CA94DC2C760107C00E944F00C82ECE
:1007B000880FDD08EE08FF082FEFC216D206E2060A
:1007C000F20699F30E944F008F3FE1F780E3C81AC9
:1007D000D108E108F1088AE20E947901C601880F78
:1007E000991FCC0CDD1CCC0CDD1CCC0CDD1CC80E08
:1007F000D91EC00ED11E44244A94542C320107C085
:100800000E944F00482E880F5508660877089FEF12
:10081000491659066906790699F30E944F008F3FE1
:10082000E1F720E3421A5108610871088AE20E9448
:1008300079014C0C5D1C8FEF94E32CE081509040CB
:100840002040E1F700C0000081E00E94D900C415FB
:10085000D50559F481E00E94D90085E890E00E9416
:10086000E80100E0BB24B3944FCE81E00E94D900A0
:1008700084E990E00E94E80188B3816088BB8FE73B
:100880009AE126E0815090402040E1F700C000004E
:1008900088B38E7F88BB00E037CE103321F581E02E
:1008A000B81221C00E944F008F3FE1F70F5F063062
:1008B00009F02ACE81E00E94D9008EE990E00E94E2
:1008C000E80188B3816088BB9FEF29E688E19150F9
:1008D00020408040E1F700C0000088B38E7F88BBD5
:1008E000C0E0D0E011CE1F3F09F40ECE0E944F00B1
:1008F0008F3FE1F700E008CEA29FB001B39FC00197
:10090000A39F700D811D1124911DB29F700D811D3B
:0A0910001124911D0895F894FFCF03
:10091A004E65772050773A00596F7572206E657769
:10092A002050573A00446F6F72204973204C6F630E
:10093A006B65642000446F6F72206973204F706585
:10094A006E65640054727920616761696E00506156
:0E095A007373776F72642072657365740000AA
:00000001FF
